{
  "contractName": "FuckWallStreet",
  "abi": [
    {
      "inputs": [],
      "stateMutability": "nonpayable",
      "type": "constructor"
    },
    {
      "anonymous": false,
      "inputs": [
        {
          "indexed": true,
          "internalType": "address",
          "name": "owner",
          "type": "address"
        },
        {
          "indexed": true,
          "internalType": "address",
          "name": "spender",
          "type": "address"
        },
        {
          "indexed": false,
          "internalType": "uint256",
          "name": "value",
          "type": "uint256"
        }
      ],
      "name": "Approval",
      "type": "event"
    },
    {
      "anonymous": false,
      "inputs": [
        {
          "indexed": false,
          "internalType": "string",
          "name": "redditUser",
          "type": "string"
        },
        {
          "indexed": false,
          "internalType": "address",
          "name": "ethAddress",
          "type": "address"
        },
        {
          "indexed": false,
          "internalType": "uint8",
          "name": "tier",
          "type": "uint8"
        }
      ],
      "name": "ClaimConfirmEvent",
      "type": "event"
    },
    {
      "anonymous": false,
      "inputs": [
        {
          "indexed": false,
          "internalType": "bytes32",
          "name": "requestId",
          "type": "bytes32"
        }
      ],
      "name": "ClaimRequestEvent",
      "type": "event"
    },
    {
      "anonymous": false,
      "inputs": [
        {
          "indexed": true,
          "internalType": "address",
          "name": "previousOwner",
          "type": "address"
        },
        {
          "indexed": true,
          "internalType": "address",
          "name": "newOwner",
          "type": "address"
        }
      ],
      "name": "OwnershipTransferred",
      "type": "event"
    },
    {
      "anonymous": false,
      "inputs": [
        {
          "indexed": true,
          "internalType": "address",
          "name": "from",
          "type": "address"
        },
        {
          "indexed": true,
          "internalType": "address",
          "name": "to",
          "type": "address"
        },
        {
          "indexed": false,
          "internalType": "uint256",
          "name": "value",
          "type": "uint256"
        }
      ],
      "name": "Transfer",
      "type": "event"
    },
    {
      "inputs": [
        {
          "internalType": "address",
          "name": "owner",
          "type": "address"
        },
        {
          "internalType": "address",
          "name": "spender",
          "type": "address"
        }
      ],
      "name": "allowance",
      "outputs": [
        {
          "internalType": "uint256",
          "name": "",
          "type": "uint256"
        }
      ],
      "stateMutability": "view",
      "type": "function",
      "constant": true
    },
    {
      "inputs": [
        {
          "internalType": "address",
          "name": "spender",
          "type": "address"
        },
        {
          "internalType": "uint256",
          "name": "amount",
          "type": "uint256"
        }
      ],
      "name": "approve",
      "outputs": [
        {
          "internalType": "bool",
          "name": "",
          "type": "bool"
        }
      ],
      "stateMutability": "nonpayable",
      "type": "function"
    },
    {
      "inputs": [
        {
          "internalType": "address",
          "name": "account",
          "type": "address"
        }
      ],
      "name": "balanceOf",
      "outputs": [
        {
          "internalType": "uint256",
          "name": "",
          "type": "uint256"
        }
      ],
      "stateMutability": "view",
      "type": "function",
      "constant": true
    },
    {
      "inputs": [],
      "name": "cap",
      "outputs": [
        {
          "internalType": "uint256",
          "name": "",
          "type": "uint256"
        }
      ],
      "stateMutability": "view",
      "type": "function",
      "constant": true
    },
    {
      "inputs": [
        {
          "internalType": "bytes32",
          "name": "",
          "type": "bytes32"
        }
      ],
      "name": "claims",
      "outputs": [
        {
          "internalType": "string",
          "name": "redditUser",
          "type": "string"
        },
        {
          "internalType": "address",
          "name": "ethAddress",
          "type": "address"
        },
        {
          "internalType": "uint8",
          "name": "tier",
          "type": "uint8"
        },
        {
          "internalType": "bool",
          "name": "confirmed",
          "type": "bool"
        }
      ],
      "stateMutability": "view",
      "type": "function",
      "constant": true
    },
    {
      "inputs": [],
      "name": "decimals",
      "outputs": [
        {
          "internalType": "uint8",
          "name": "",
          "type": "uint8"
        }
      ],
      "stateMutability": "view",
      "type": "function",
      "constant": true
    },
    {
      "inputs": [
        {
          "internalType": "address",
          "name": "spender",
          "type": "address"
        },
        {
          "internalType": "uint256",
          "name": "subtractedValue",
          "type": "uint256"
        }
      ],
      "name": "decreaseAllowance",
      "outputs": [
        {
          "internalType": "bool",
          "name": "",
          "type": "bool"
        }
      ],
      "stateMutability": "nonpayable",
      "type": "function"
    },
    {
      "inputs": [
        {
          "internalType": "string",
          "name": "",
          "type": "string"
        }
      ],
      "name": "hasClaimed",
      "outputs": [
        {
          "internalType": "bool",
          "name": "",
          "type": "bool"
        }
      ],
      "stateMutability": "view",
      "type": "function",
      "constant": true
    },
    {
      "inputs": [
        {
          "internalType": "address",
          "name": "spender",
          "type": "address"
        },
        {
          "internalType": "uint256",
          "name": "addedValue",
          "type": "uint256"
        }
      ],
      "name": "increaseAllowance",
      "outputs": [
        {
          "internalType": "bool",
          "name": "",
          "type": "bool"
        }
      ],
      "stateMutability": "nonpayable",
      "type": "function"
    },
    {
      "inputs": [],
      "name": "name",
      "outputs": [
        {
          "internalType": "string",
          "name": "",
          "type": "string"
        }
      ],
      "stateMutability": "view",
      "type": "function",
      "constant": true
    },
    {
      "inputs": [],
      "name": "oracleFee",
      "outputs": [
        {
          "internalType": "uint256",
          "name": "",
          "type": "uint256"
        }
      ],
      "stateMutability": "view",
      "type": "function",
      "constant": true
    },
    {
      "inputs": [],
      "name": "owner",
      "outputs": [
        {
          "internalType": "address",
          "name": "",
          "type": "address"
        }
      ],
      "stateMutability": "view",
      "type": "function",
      "constant": true
    },
    {
      "inputs": [],
      "name": "renounceOwnership",
      "outputs": [],
      "stateMutability": "nonpayable",
      "type": "function"
    },
    {
      "inputs": [],
      "name": "symbol",
      "outputs": [
        {
          "internalType": "string",
          "name": "",
          "type": "string"
        }
      ],
      "stateMutability": "view",
      "type": "function",
      "constant": true
    },
    {
      "inputs": [],
      "name": "totalSupply",
      "outputs": [
        {
          "internalType": "uint256",
          "name": "",
          "type": "uint256"
        }
      ],
      "stateMutability": "view",
      "type": "function",
      "constant": true
    },
    {
      "inputs": [
        {
          "internalType": "address",
          "name": "recipient",
          "type": "address"
        },
        {
          "internalType": "uint256",
          "name": "amount",
          "type": "uint256"
        }
      ],
      "name": "transfer",
      "outputs": [
        {
          "internalType": "bool",
          "name": "",
          "type": "bool"
        }
      ],
      "stateMutability": "nonpayable",
      "type": "function"
    },
    {
      "inputs": [
        {
          "internalType": "address",
          "name": "sender",
          "type": "address"
        },
        {
          "internalType": "address",
          "name": "recipient",
          "type": "address"
        },
        {
          "internalType": "uint256",
          "name": "amount",
          "type": "uint256"
        }
      ],
      "name": "transferFrom",
      "outputs": [
        {
          "internalType": "bool",
          "name": "",
          "type": "bool"
        }
      ],
      "stateMutability": "nonpayable",
      "type": "function"
    },
    {
      "inputs": [
        {
          "internalType": "address",
          "name": "newOwner",
          "type": "address"
        }
      ],
      "name": "transferOwnership",
      "outputs": [],
      "stateMutability": "nonpayable",
      "type": "function"
    },
    {
      "inputs": [
        {
          "internalType": "uint256",
          "name": "_fee",
          "type": "uint256"
        }
      ],
      "name": "setOracleFee",
      "outputs": [],
      "stateMutability": "nonpayable",
      "type": "function"
    },
    {
      "inputs": [
        {
          "internalType": "string",
          "name": "_redditUser",
          "type": "string"
        }
      ],
      "name": "claimRequest",
      "outputs": [],
      "stateMutability": "payable",
      "type": "function",
      "payable": true
    },
    {
      "inputs": [
        {
          "internalType": "bytes32",
          "name": "_requestId",
          "type": "bytes32"
        },
        {
          "internalType": "uint8",
          "name": "_tier",
          "type": "uint8"
        },
        {
          "internalType": "bool",
          "name": "_isMod",
          "type": "bool"
        }
      ],
      "name": "claimConfirm",
      "outputs": [],
      "stateMutability": "nonpayable",
      "type": "function"
    }
  ],
  "bytecode": "0x60806040526b08e2bf26b77d60a77e000000600d553480156200002157600080fd5b50600d546040518060400160405280600e81526020016d119d58dad5d85b1b14dd1c99595d60921b8152506040518060400160405280600381526020016246575360e81b81525060006200007a620001fd60201b60201c565b600080546001600160a01b0319166001600160a01b0383169081178255604051929350917f8be0079c531659141344cd1fd0a4f28419497f9722a3daafe3b4186f6b6457e0908290a3508151620000d99060049060208501906200053a565b508051620000ef9060059060208401906200053a565b50506006805460ff19166012179055508062000152576040805162461bcd60e51b815260206004820152601560248201527f45524332304361707065643a2063617020697320300000000000000000000000604482015290519081900360640190fd5b600755600b8054600181810183556000839052681b1ae4d6e2ef5000007f0175b7a638427703f0dbe7bb9bbf987a2551717b34e79f33b5b1008d1fa01db992830155825480820184556828a857425466f80000908301558254908101909255685150ae84a8cdf000009101556602d79883d20000600c55620001f7620001d762000201565b620001f1600d5460646200021060201b620012d01760201c565b62000261565b620005d6565b3390565b6000546001600160a01b031690565b60006200025a83836040518060400160405280601a81526020017f536166654d6174683a206469766973696f6e206279207a65726f0000000000008152506200037460201b60201c565b9392505050565b6001600160a01b038216620002bd576040805162461bcd60e51b815260206004820152601f60248201527f45524332303a206d696e7420746f20746865207a65726f206164647265737300604482015290519081900360640190fd5b620002cb600083836200041b565b620002e7816003546200043860201b620013191790919060201c565b6003556001600160a01b0382166000908152600160209081526040909120546200031c9183906200131962000438821b17901c565b6001600160a01b03831660008181526001602090815260408083209490945583518581529351929391927fddf252ad1be2c89b69c2b068fc378daa952ba7f163c4a11628f55a4df523b3ef9281900390910190a35050565b60008183620004045760405162461bcd60e51b81526004018080602001828103825283818151815260200191508051906020019080838360005b83811015620003c8578181015183820152602001620003ae565b50505050905090810190601f168015620003f65780820380516001836020036101000a031916815260200191505b509250505060405180910390fd5b5060008385816200041157fe5b0495945050505050565b620004338383836200049360201b620013731760201c565b505050565b6000828201838110156200025a576040805162461bcd60e51b815260206004820152601b60248201527f536166654d6174683a206164646974696f6e206f766572666c6f770000000000604482015290519081900360640190fd5b620004ab8383836200043360201b620013f41760201c565b6001600160a01b0383166200043357600754620004e082620004cc62000534565b6200043860201b620013191790919060201c565b111562000433576040805162461bcd60e51b815260206004820152601960248201527f45524332304361707065643a2063617020657863656564656400000000000000604482015290519081900360640190fd5b60035490565b828054600181600116156101000203166002900490600052602060002090601f016020900481019282601f106200057d57805160ff1916838001178555620005ad565b82800160010185558215620005ad579182015b82811115620005ad57825182559160200191906001019062000590565b50620005bb929150620005bf565b5090565b5b80821115620005bb5760008155600101620005c0565b611ab280620005e66000396000f3fe60806040526004361061012a5760003560e01c8063715018a6116100ab578063a9059cbb1161006f578063a9059cbb14610510578063b6d9ef6014610549578063dd62ed3e14610573578063eff0f592146105ae578063f2fde38b14610673578063f9cd3ceb146106a65761012a565b8063715018a61461040c5780638da5cb5b146104215780638fdf0bc21461045257806395d89b41146104c2578063a457c2d7146104d75761012a565b8063355274ea116100f2578063355274ea1461029b578063363454ee146102b05780633796a7441461036357806339509351146103a057806370a08231146103d95761012a565b806306fdde031461012f578063095ea7b3146101b957806318160ddd1461020657806323b872dd1461022d578063313ce56714610270575b600080fd5b34801561013b57600080fd5b506101446106bb565b6040805160208082528351818301528351919283929083019185019080838360005b8381101561017e578181015183820152602001610166565b50505050905090810190601f1680156101ab5780820380516001836020036101000a031916815260200191505b509250505060405180910390f35b3480156101c557600080fd5b506101f2600480360360408110156101dc57600080fd5b506001600160a01b038135169060200135610751565b604080519115158252519081900360200190f35b34801561021257600080fd5b5061021b61076e565b60408051918252519081900360200190f35b34801561023957600080fd5b506101f26004803603606081101561025057600080fd5b506001600160a01b03813581169160208101359091169060400135610774565b34801561027c57600080fd5b506102856107fb565b6040805160ff9092168252519081900360200190f35b3480156102a757600080fd5b5061021b610804565b3480156102bc57600080fd5b506101f2600480360360208110156102d357600080fd5b8101906020810181356401000000008111156102ee57600080fd5b82018360208201111561030057600080fd5b8035906020019184600183028401116401000000008311171561032257600080fd5b91908080601f01602080910402602001604051908101604052809392919081815260200183838082843760009201919091525092955061080a945050505050565b34801561036f57600080fd5b5061039e6004803603606081101561038657600080fd5b5080359060ff6020820135169060400135151561082a565b005b3480156103ac57600080fd5b506101f2600480360360408110156103c357600080fd5b506001600160a01b038135169060200135610c42565b3480156103e557600080fd5b5061021b600480360360208110156103fc57600080fd5b50356001600160a01b0316610c90565b34801561041857600080fd5b5061039e610cab565b34801561042d57600080fd5b50610436610d4d565b604080516001600160a01b039092168252519081900360200190f35b61039e6004803603602081101561046857600080fd5b81019060208101813564010000000081111561048357600080fd5b82018360208201111561049557600080fd5b803590602001918460018302840111640100000000831117156104b757600080fd5b509092509050610d5c565b3480156104ce57600080fd5b50610144610fa7565b3480156104e357600080fd5b506101f2600480360360408110156104fa57600080fd5b506001600160a01b038135169060200135611008565b34801561051c57600080fd5b506101f26004803603604081101561053357600080fd5b506001600160a01b038135169060200135611070565b34801561055557600080fd5b5061039e6004803603602081101561056c57600080fd5b5035611084565b34801561057f57600080fd5b5061021b6004803603604081101561059657600080fd5b506001600160a01b03813581169160200135166110e1565b3480156105ba57600080fd5b506105d8600480360360208110156105d157600080fd5b503561110c565b6040518080602001856001600160a01b031681526020018460ff1681526020018315158152602001828103825286818151815260200191508051906020019080838360005b8381101561063557818101518382015260200161061d565b50505050905090810190601f1680156106625780820380516001836020036101000a031916815260200191505b509550505050505060405180910390f35b34801561067f57600080fd5b5061039e6004803603602081101561069657600080fd5b50356001600160a01b03166111d2565b3480156106b257600080fd5b5061021b6112ca565b60048054604080516020601f60026000196101006001881615020190951694909404938401819004810282018101909252828152606093909290918301828280156107475780601f1061071c57610100808354040283529160200191610747565b820191906000526020600020905b81548152906001019060200180831161072a57829003601f168201915b5050505050905090565b600061076561075e6113f9565b84846113fd565b50600192915050565b60035490565b60006107818484846114e9565b6107f18461078d6113f9565b6107ec856040518060600160405280602881526020016119a6602891396001600160a01b038a166000908152600260205260408120906107cb6113f9565b6001600160a01b031681526020810191909152604001600020549190611646565b6113fd565b5060019392505050565b60065460ff1690565b60075490565b805160208183018101805160098252928201919093012091525460ff1681565b6108326113f9565b6000546001600160a01b03908116911614610882576040805162461bcd60e51b815260206004820181905260248201526000805160206119ce833981519152604482015290519081900360640190fd5b600083815260086020526040902060010154600160a81b900460ff16156108f0576040805162461bcd60e51b815260206004820152601860248201527f436c61696d20616c726561647920636f6e6669726d65642e0000000000000000604482015290519081900360640190fd5b6000838152600860205260409081902060018082018054600160a81b60ff60a01b19909116600160a01b60ff8916021760ff60a81b191617905591518154600992919081908390600261010082891615026000190190911604801561098c5780601f1061096a57610100808354040283529182019161098c565b820191906000526020600020905b815481529060010190602001808311610978575b50509283525050604051908190036020019020805491151560ff19909216919091179055600b80546000916109da9160ff86169081106109c857fe5b906000526020600020015460146112d0565b90506000610a03600b8560ff16815481106109f157fe5b9060005260206000200154600a6112d0565b600086815260086020526040902060010154600b8054929350610a54926001600160a01b0390921691610a4f919060ff8916908110610a3e57fe5b9060005260206000200154846116dd565b61171f565b60008581526008602090815260409182902060018082015484516001600160a01b038216948101859052600160a01b90910460ff1694810185905260608082528354600261010094821615949094026000190116929092049181018290527f1e72c82b7fb25cdc1586b37663b6d1e85a1199d6c121fabfee404cd9e8e30da194929392918190608082019086908015610b2e5780601f10610b0357610100808354040283529160200191610b2e565b820191906000526020600020905b815481529060010190602001808311610b1157829003601f168201915b505094505050505060405180910390a1600a5415610bb1576000610b5783600a805490506112d0565b905060005b600a54811015610b9957610b91600a8281548110610b7657fe5b6000918252602090912001546001600160a01b03168361171f565b600101610b5c565b50610bab610ba5610d4d565b8461171f565b50610bc2565b610bc2610bbc610d4d565b8261171f565b6001831515148015610bd65750600a54600f115b15610c3b576000858152600860205260408120600190810154600a805492830181559092527fc65a7bb8d6351c1cf70c95a316cc6a92839c986682d98bc35f958f4883f9d2a80180546001600160a01b0319166001600160a01b039092169190911790555b5050505050565b6000610765610c4f6113f9565b846107ec8560026000610c606113f9565b6001600160a01b03908116825260208083019390935260409182016000908120918c168152925290205490611319565b6001600160a01b031660009081526001602052604090205490565b610cb36113f9565b6000546001600160a01b03908116911614610d03576040805162461bcd60e51b815260206004820181905260248201526000805160206119ce833981519152604482015290519081900360640190fd5b600080546040516001600160a01b03909116907f8be0079c531659141344cd1fd0a4f28419497f9722a3daafe3b4186f6b6457e0908390a3600080546001600160a01b0319169055565b6000546001600160a01b031690565b6009828260405180838380828437919091019485525050604051928390036020019092205460ff16159150610dc490505760405162461bcd60e51b81526004018080602001828103825260218152602001806119ee6021913960400191505060405180910390fd5b600c54341015610e1b576040805162461bcd60e51b815260206004820152601960248201527f4f7261636c6520666565206d7573742062652070617965642e00000000000000604482015290519081900360640190fd5b610e23610d4d565b6001600160a01b03166108fc349081150290604051600060405180830381858888f19350505050158015610e5b573d6000803e3d6000fd5b50600082824260405160200180848480828437919091019283525050604080518083038152602080840180845282519282019290922060c0601f8a018390049092028501820190935260a084018881529296509094508493509091879187918291018382808284376000920182905250938552505033602080850191909152604080850184905260609094018390528583526008815292909120835180519193610f0a93508492910190611881565b50602082810151600190920180546040808601516060909601511515600160a81b0260ff60a81b1960ff909716600160a01b0260ff60a01b196001600160a01b039097166001600160a01b03199094169390931795909516919091179490941692909217909155815183815291517fb8d3109337f09c8b8df165f55510132531b56eac77cd4a79fadf43a0b2140cbb9281900390910190a1505050565b60058054604080516020601f60026000196101006001881615020190951694909404938401819004810282018101909252828152606093909290918301828280156107475780601f1061071c57610100808354040283529160200191610747565b60006107656110156113f9565b846107ec85604051806060016040528060258152602001611a58602591396002600061103f6113f9565b6001600160a01b03908116825260208083019390935260409182016000908120918d16815292529020549190611646565b600061076561107d6113f9565b84846114e9565b61108c6113f9565b6000546001600160a01b039081169116146110dc576040805162461bcd60e51b815260206004820181905260248201526000805160206119ce833981519152604482015290519081900360640190fd5b600c55565b6001600160a01b03918216600090815260026020908152604080832093909416825291909152205490565b60086020908152600091825260409182902080548351601f600260001961010060018616150201909316929092049182018490048402810184019094528084529092918391908301828280156111a35780601f10611178576101008083540402835291602001916111a3565b820191906000526020600020905b81548152906001019060200180831161118657829003601f168201915b505050600190930154919250506001600160a01b0381169060ff600160a01b8204811691600160a81b90041684565b6111da6113f9565b6000546001600160a01b0390811691161461122a576040805162461bcd60e51b815260206004820181905260248201526000805160206119ce833981519152604482015290519081900360640190fd5b6001600160a01b03811661126f5760405162461bcd60e51b81526004018080602001828103825260268152602001806119386026913960400191505060405180910390fd5b600080546040516001600160a01b03808516939216917f8be0079c531659141344cd1fd0a4f28419497f9722a3daafe3b4186f6b6457e091a3600080546001600160a01b0319166001600160a01b0392909216919091179055565b600c5481565b600061131283836040518060400160405280601a81526020017f536166654d6174683a206469766973696f6e206279207a65726f000000000000815250611811565b9392505050565b600082820183811015611312576040805162461bcd60e51b815260206004820152601b60248201527f536166654d6174683a206164646974696f6e206f766572666c6f770000000000604482015290519081900360640190fd5b61137e8383836113f4565b6001600160a01b0383166113f4576007546113a18261139b61076e565b90611319565b11156113f4576040805162461bcd60e51b815260206004820152601960248201527f45524332304361707065643a2063617020657863656564656400000000000000604482015290519081900360640190fd5b505050565b3390565b6001600160a01b0383166114425760405162461bcd60e51b8152600401808060200182810382526024815260200180611a346024913960400191505060405180910390fd5b6001600160a01b0382166114875760405162461bcd60e51b815260040180806020018281038252602281526020018061195e6022913960400191505060405180910390fd5b6001600160a01b03808416600081815260026020908152604080832094871680845294825291829020859055815185815291517f8c5be1e5ebec7d5bd14f71427d1e84f3dd0314c0f7b2291e5b200ac8c7c3b9259281900390910190a3505050565b6001600160a01b03831661152e5760405162461bcd60e51b8152600401808060200182810382526025815260200180611a0f6025913960400191505060405180910390fd5b6001600160a01b0382166115735760405162461bcd60e51b81526004018080602001828103825260238152602001806119156023913960400191505060405180910390fd5b61157e838383611876565b6115bb81604051806060016040528060268152602001611980602691396001600160a01b0386166000908152600160205260409020549190611646565b6001600160a01b0380851660009081526001602052604080822093909355908416815220546115ea9082611319565b6001600160a01b0380841660008181526001602090815260409182902094909455805185815290519193928716927fddf252ad1be2c89b69c2b068fc378daa952ba7f163c4a11628f55a4df523b3ef92918290030190a3505050565b600081848411156116d55760405162461bcd60e51b81526004018080602001828103825283818151815260200191508051906020019080838360005b8381101561169a578181015183820152602001611682565b50505050905090810190601f1680156116c75780820380516001836020036101000a031916815260200191505b509250505060405180910390fd5b505050900390565b600061131283836040518060400160405280601e81526020017f536166654d6174683a207375627472616374696f6e206f766572666c6f770000815250611646565b6001600160a01b03821661177a576040805162461bcd60e51b815260206004820152601f60248201527f45524332303a206d696e7420746f20746865207a65726f206164647265737300604482015290519081900360640190fd5b61178660008383611876565b6003546117939082611319565b6003556001600160a01b0382166000908152600160205260409020546117b99082611319565b6001600160a01b03831660008181526001602090815260408083209490945583518581529351929391927fddf252ad1be2c89b69c2b068fc378daa952ba7f163c4a11628f55a4df523b3ef9281900390910190a35050565b600081836118605760405162461bcd60e51b815260206004820181815283516024840152835190928392604490910191908501908083836000831561169a578181015183820152602001611682565b50600083858161186c57fe5b0495945050505050565b6113f4838383611373565b828054600181600116156101000203166002900490600052602060002090601f016020900481019282601f106118c257805160ff19168380011785556118ef565b828001600101855582156118ef579182015b828111156118ef5782518255916020019190600101906118d4565b506118fb9291506118ff565b5090565b5b808211156118fb576000815560010161190056fe45524332303a207472616e7366657220746f20746865207a65726f20616464726573734f776e61626c653a206e6577206f776e657220697320746865207a65726f206164647265737345524332303a20617070726f766520746f20746865207a65726f206164647265737345524332303a207472616e7366657220616d6f756e7420657863656564732062616c616e636545524332303a207472616e7366657220616d6f756e74206578636565647320616c6c6f77616e63654f776e61626c653a2063616c6c6572206973206e6f7420746865206f776e6572596f7520616c726561647920636c61696d656420796f75722061697264726f702e45524332303a207472616e736665722066726f6d20746865207a65726f206164647265737345524332303a20617070726f76652066726f6d20746865207a65726f206164647265737345524332303a2064656372656173656420616c6c6f77616e63652062656c6f77207a65726fa2646970667358221220d544887597e51fc5be7b8a4137bfd02167d73cf59dd98bc60f003f71aa63c78364736f6c634300060c0033",
  "immutableReferences": {},
  "source": "// SPDX-License-Identifier: MIT\npragma solidity ^0.6.0;\n\nimport \"@openzeppelin/contracts/token/ERC20/ERC20Capped.sol\";\nimport \"@openzeppelin/contracts/access/Ownable.sol\";\nimport \"@openzeppelin/contracts/math/SafeMath.sol\";\n\ncontract FuckWallStreet is Ownable, ERC20, ERC20Capped {\n  event ClaimRequestEvent(bytes32 requestId);\n  event ClaimConfirmEvent(string redditUser, address ethAddress, uint8 tier);\n\n  struct Claim {\n    string redditUser;\n    address ethAddress;\n    uint8 tier;\n    bool confirmed;\n  }\n  mapping(bytes32 => Claim) public claims; // (oracle) requestId => Claim\n  mapping(string => bool) public hasClaimed; // username => bool\n  address[] private mods;\n  uint256[] private tierAmounts;\n  uint256 public oracleFee;\n\n  uint256 supplyCap = 2750000000 * 10**18;\n\n  constructor()\n    public\n    ERC20(\"FuckWallStreet\", \"FWS\")\n    ERC20Capped(supplyCap)\n  {\n    tierAmounts.push(500 * 10**18); // 500 FWS for tier0\n    tierAmounts.push(750 * 10**18); // 750 FWS for tier1\n    tierAmounts.push(1500 * 10**18); // 1500 FWS for tier2\n    oracleFee = 0.0008 * 10 ** 18; // 0.0008 ETH fee for each claim\n\n    // mint 1% of total supply for owner\n    _mint(owner(), SafeMath.div(supplyCap, 100));\n  }\n\n  function _beforeTokenTransfer(address _from, address _to, uint256 _amount) internal override(ERC20, ERC20Capped) {\n    super._beforeTokenTransfer(_from, _to, _amount);\n  }\n\n  function setOracleFee(uint256 _fee) public onlyOwner {\n    oracleFee = _fee;\n  }\n\n  function claimRequest(string calldata _redditUser) public payable {\n    require(hasClaimed[_redditUser] == false, \"You already claimed your airdrop.\");\n    require(msg.value >= oracleFee, \"Oracle fee must be payed.\");\n\n    // forward fee to oracle (owner) and store request\n    payable(owner()).transfer(msg.value);\n    bytes32 requestId = bytes32(keccak256(abi.encodePacked(_redditUser, block.timestamp)));\n    claims[requestId] = Claim(_redditUser, msg.sender, 0, false);\n    emit ClaimRequestEvent(requestId);\n  }\n\n  function claimConfirm(bytes32 _requestId, uint8 _tier, bool _isMod) public onlyOwner {\n    require(claims[_requestId].confirmed == false, \"Claim already confirmed.\");\n\n    // set tier and mark as claimed\n    claims[_requestId].tier = _tier;\n    claims[_requestId].confirmed = true;\n    hasClaimed[claims[_requestId].redditUser] = true;\n\n    // mint bonus for owner and mods\n    // owner gets 5% and mods also share 5%\n    // as long as there are no mods, owner gets 10%\n    uint256 fivePercent = SafeMath.div(tierAmounts[_tier], 20);\n    uint256 tenPercent = SafeMath.div(tierAmounts[_tier], 10);\n\n    // mint (90%) for redditUser first\n    _mint(claims[_requestId].ethAddress, SafeMath.sub(tierAmounts[_tier], tenPercent));\n    ClaimConfirmEvent(claims[_requestId].redditUser, claims[_requestId].ethAddress, claims[_requestId].tier);\n\n    // then mint bonus (10%)\n    if (mods.length > 0) {\n      uint256 perMod = SafeMath.div(fivePercent, mods.length);\n      for (uint i = 0; i < mods.length; i++) {\n        _mint(mods[i], perMod);\n      }\n      _mint(owner(), fivePercent);\n    } else {\n      _mint(owner(), tenPercent);\n    }\n\n    // if requesting user was a mod then add to list of mods (up to 15 mods)\n    // but after above rewards distribution, so this new mod will be included\n    // in the next claim but not his/her own\n    if (_isMod == true && mods.length < 15) {\n      mods.push(claims[_requestId].ethAddress);\n    }\n  }\n}\n",
  "sourcePath": "/home/mkt/Projects/wallstreetbets/contracts/FuckWallStreet.sol",
  "compiler": {
    "name": "solc",
    "version": "0.6.12+commit.27d51765.Emscripten.clang"
  },
  "schemaVersion": "3.2.5",
  "updatedAt": "2021-02-03T20:31:59.666Z",
  "networkType": "ethereum",
  "devdoc": {
    "kind": "dev",
    "methods": {
      "allowance(address,address)": {
        "details": "See {IERC20-allowance}."
      },
      "approve(address,uint256)": {
        "details": "See {IERC20-approve}. Requirements: - `spender` cannot be the zero address."
      },
      "balanceOf(address)": {
        "details": "See {IERC20-balanceOf}."
      },
      "cap()": {
        "details": "Returns the cap on the token's total supply."
      },
      "decimals()": {
        "details": "Returns the number of decimals used to get its user representation. For example, if `decimals` equals `2`, a balance of `505` tokens should be displayed to a user as `5,05` (`505 / 10 ** 2`). Tokens usually opt for a value of 18, imitating the relationship between Ether and Wei. This is the value {ERC20} uses, unless {_setupDecimals} is called. NOTE: This information is only used for _display_ purposes: it in no way affects any of the arithmetic of the contract, including {IERC20-balanceOf} and {IERC20-transfer}."
      },
      "decreaseAllowance(address,uint256)": {
        "details": "Atomically decreases the allowance granted to `spender` by the caller. This is an alternative to {approve} that can be used as a mitigation for problems described in {IERC20-approve}. Emits an {Approval} event indicating the updated allowance. Requirements: - `spender` cannot be the zero address. - `spender` must have allowance for the caller of at least `subtractedValue`."
      },
      "increaseAllowance(address,uint256)": {
        "details": "Atomically increases the allowance granted to `spender` by the caller. This is an alternative to {approve} that can be used as a mitigation for problems described in {IERC20-approve}. Emits an {Approval} event indicating the updated allowance. Requirements: - `spender` cannot be the zero address."
      },
      "name()": {
        "details": "Returns the name of the token."
      },
      "owner()": {
        "details": "Returns the address of the current owner."
      },
      "renounceOwnership()": {
        "details": "Leaves the contract without owner. It will not be possible to call `onlyOwner` functions anymore. Can only be called by the current owner. NOTE: Renouncing ownership will leave the contract without an owner, thereby removing any functionality that is only available to the owner."
      },
      "symbol()": {
        "details": "Returns the symbol of the token, usually a shorter version of the name."
      },
      "totalSupply()": {
        "details": "See {IERC20-totalSupply}."
      },
      "transfer(address,uint256)": {
        "details": "See {IERC20-transfer}. Requirements: - `recipient` cannot be the zero address. - the caller must have a balance of at least `amount`."
      },
      "transferFrom(address,address,uint256)": {
        "details": "See {IERC20-transferFrom}. Emits an {Approval} event indicating the updated allowance. This is not required by the EIP. See the note at the beginning of {ERC20}. Requirements: - `sender` and `recipient` cannot be the zero address. - `sender` must have a balance of at least `amount`. - the caller must have allowance for ``sender``'s tokens of at least `amount`."
      },
      "transferOwnership(address)": {
        "details": "Transfers ownership of the contract to a new account (`newOwner`). Can only be called by the current owner."
      }
    },
    "version": 1
  },
  "userdoc": {
    "kind": "user",
    "methods": {},
    "version": 1
  }
}